{
  "contractName": "User",
  "abi": [
    {
      "inputs": [],
      "payable": false,
      "stateMutability": "nonpayable",
      "type": "constructor"
    },
    {
      "constant": true,
      "inputs": [
        {
          "name": "userAddress",
          "type": "address"
        }
      ],
      "name": "hasUser",
      "outputs": [
        {
          "name": "hasIndeed",
          "type": "bool"
        }
      ],
      "payable": false,
      "stateMutability": "view",
      "type": "function"
    },
    {
      "constant": true,
      "inputs": [
        {
          "name": "username",
          "type": "bytes16"
        }
      ],
      "name": "usernameTaken",
      "outputs": [
        {
          "name": "takenIndeed",
          "type": "bool"
        }
      ],
      "payable": false,
      "stateMutability": "view",
      "type": "function"
    },
    {
      "constant": false,
      "inputs": [
        {
          "name": "username",
          "type": "bytes16"
        },
        {
          "name": "title",
          "type": "bytes"
        },
        {
          "name": "intro",
          "type": "bytes"
        }
      ],
      "name": "createUser",
      "outputs": [
        {
          "name": "success",
          "type": "bool"
        }
      ],
      "payable": false,
      "stateMutability": "nonpayable",
      "type": "function"
    },
    {
      "constant": false,
      "inputs": [
        {
          "name": "ipfsHash",
          "type": "bytes"
        }
      ],
      "name": "updateUser",
      "outputs": [
        {
          "name": "success",
          "type": "bool"
        }
      ],
      "payable": false,
      "stateMutability": "nonpayable",
      "type": "function"
    },
    {
      "constant": true,
      "inputs": [],
      "name": "getUserCount",
      "outputs": [
        {
          "name": "count",
          "type": "uint256"
        }
      ],
      "payable": false,
      "stateMutability": "view",
      "type": "function"
    },
    {
      "constant": true,
      "inputs": [
        {
          "name": "index",
          "type": "uint256"
        }
      ],
      "name": "getUserByIndex",
      "outputs": [
        {
          "name": "userAddress",
          "type": "address"
        },
        {
          "name": "username",
          "type": "bytes16"
        },
        {
          "name": "ipfsHash",
          "type": "bytes"
        }
      ],
      "payable": false,
      "stateMutability": "view",
      "type": "function"
    },
    {
      "constant": true,
      "inputs": [
        {
          "name": "index",
          "type": "uint256"
        }
      ],
      "name": "getAddressByIndex",
      "outputs": [
        {
          "name": "userAddress",
          "type": "address"
        }
      ],
      "payable": false,
      "stateMutability": "view",
      "type": "function"
    },
    {
      "constant": true,
      "inputs": [
        {
          "name": "index",
          "type": "uint256"
        }
      ],
      "name": "getUsernameByIndex",
      "outputs": [
        {
          "name": "username",
          "type": "bytes16"
        }
      ],
      "payable": false,
      "stateMutability": "view",
      "type": "function"
    },
    {
      "constant": true,
      "inputs": [
        {
          "name": "index",
          "type": "uint256"
        }
      ],
      "name": "getIpfsHashByIndex",
      "outputs": [
        {
          "name": "ipfsHash",
          "type": "bytes"
        }
      ],
      "payable": false,
      "stateMutability": "view",
      "type": "function"
    },
    {
      "constant": true,
      "inputs": [
        {
          "name": "userAddress",
          "type": "address"
        }
      ],
      "name": "getUserByAddress",
      "outputs": [
        {
          "name": "index",
          "type": "uint256"
        },
        {
          "name": "username",
          "type": "bytes16"
        },
        {
          "name": "ipfsHash",
          "type": "bytes"
        }
      ],
      "payable": false,
      "stateMutability": "view",
      "type": "function"
    },
    {
      "constant": true,
      "inputs": [
        {
          "name": "userAddress",
          "type": "address"
        }
      ],
      "name": "getIndexByAddress",
      "outputs": [
        {
          "name": "index",
          "type": "uint256"
        }
      ],
      "payable": false,
      "stateMutability": "view",
      "type": "function"
    },
    {
      "constant": true,
      "inputs": [
        {
          "name": "userAddress",
          "type": "address"
        }
      ],
      "name": "getUsernameByAddress",
      "outputs": [
        {
          "name": "username",
          "type": "bytes16"
        }
      ],
      "payable": false,
      "stateMutability": "view",
      "type": "function"
    },
    {
      "constant": true,
      "inputs": [
        {
          "name": "userAddress",
          "type": "address"
        }
      ],
      "name": "getIpfsHashByAddress",
      "outputs": [
        {
          "name": "ipfsHash",
          "type": "bytes"
        }
      ],
      "payable": false,
      "stateMutability": "view",
      "type": "function"
    },
    {
      "constant": true,
      "inputs": [
        {
          "name": "username",
          "type": "bytes16"
        }
      ],
      "name": "getUserByUsername",
      "outputs": [
        {
          "name": "index",
          "type": "uint256"
        },
        {
          "name": "userAddress",
          "type": "address"
        },
        {
          "name": "ipfsHash",
          "type": "bytes"
        }
      ],
      "payable": false,
      "stateMutability": "view",
      "type": "function"
    },
    {
      "constant": true,
      "inputs": [
        {
          "name": "username",
          "type": "bytes16"
        }
      ],
      "name": "getIndexByUsername",
      "outputs": [
        {
          "name": "index",
          "type": "uint256"
        }
      ],
      "payable": false,
      "stateMutability": "view",
      "type": "function"
    },
    {
      "constant": true,
      "inputs": [
        {
          "name": "username",
          "type": "bytes16"
        }
      ],
      "name": "getAddressByUsername",
      "outputs": [
        {
          "name": "userAddress",
          "type": "address"
        }
      ],
      "payable": false,
      "stateMutability": "view",
      "type": "function"
    },
    {
      "constant": true,
      "inputs": [
        {
          "name": "username",
          "type": "bytes16"
        }
      ],
      "name": "getIpfsHashByUsername",
      "outputs": [
        {
          "name": "ipfsHash",
          "type": "bytes"
        }
      ],
      "payable": false,
      "stateMutability": "view",
      "type": "function"
    }
  ],
  "bytecode": "0x608060405234801561001057600080fd5b50611b50806100206000396000f3006080604052600436106100f1576000357c0100000000000000000000000000000000000000000000000000000000900463ffffffff168063026d1170146100f65780630ab7c933146101775780630bac9fe71461023057806316b7addf146102975780631973ef91146102ef57806329f78d88146103465780634fd3e683146103ec57806363db68db1461044057806369c212f6146104c0578063750bab26146105b05780638de094d514610694578063a6c4ec0e14610787578063a74380a6146107e2578063b5cb15f71461089e578063ce10cf88146108c9578063ed1a998d14610936578063ff5d32fe146109b3575b600080fd5b34801561010257600080fd5b5061015d600480360381019080803590602001908201803590602001908080601f0160208091040260200160405190810160405280939291908181526020018383808284378201915050505050509192919290505050610ab9565b604051808215151515815260200191505060405180910390f35b34801561018357600080fd5b506101b560048036038101908080356fffffffffffffffffffffffffffffffff19169060200190929190505050610b44565b6040518080602001828103825283818151815260200191508051906020019080838360005b838110156101f55780820151818401526020810190506101da565b50505050905090810190601f1680156102225780820380516001836020036101000a031916815260200191505b509250505060405180910390f35b34801561023c57600080fd5b5061025b60048036038101908080359060200190929190505050610c4c565b60405180826fffffffffffffffffffffffffffffffff19166fffffffffffffffffffffffffffffffff1916815260200191505060405180910390f35b3480156102a357600080fd5b506102d560048036038101908080356fffffffffffffffffffffffffffffffff19169060200190929190505050610caa565b604051808215151515815260200191505060405180910390f35b3480156102fb57600080fd5b50610330600480360381019080803573ffffffffffffffffffffffffffffffffffffffff169060200190929190505050610d2c565b6040518082815260200191505060405180910390f35b34801561035257600080fd5b5061037160048036038101908080359060200190929190505050610d88565b6040518080602001828103825283818151815260200191508051906020019080838360005b838110156103b1578082015181840152602081019050610396565b50505050905090810190601f1680156103de5780820380516001836020036101000a031916815260200191505b509250505060405180910390f35b3480156103f857600080fd5b5061042a60048036038101908080356fffffffffffffffffffffffffffffffff19169060200190929190505050610e56565b6040518082815260200191505060405180910390f35b34801561044c57600080fd5b5061047e60048036038101908080356fffffffffffffffffffffffffffffffff19169060200190929190505050610ead565b604051808273ffffffffffffffffffffffffffffffffffffffff1673ffffffffffffffffffffffffffffffffffffffff16815260200191505060405180910390f35b3480156104cc57600080fd5b50610501600480360381019080803573ffffffffffffffffffffffffffffffffffffffff169060200190929190505050610f3d565b60405180848152602001836fffffffffffffffffffffffffffffffff19166fffffffffffffffffffffffffffffffff1916815260200180602001828103825283818151815260200191508051906020019080838360005b83811015610573578082015181840152602081019050610558565b50505050905090810190601f1680156105a05780820380516001836020036101000a031916815260200191505b5094505050505060405180910390f35b3480156105bc57600080fd5b5061067a60048036038101908080356fffffffffffffffffffffffffffffffff19169060200190929190803590602001908201803590602001908080601f0160208091040260200160405190810160405280939291908181526020018383808284378201915050505050509192919290803590602001908201803590602001908080601f0160208091040260200160405190810160405280939291908181526020018383808284378201915050505050509192919290505050611114565b604051808215151515815260200191505060405180910390f35b3480156106a057600080fd5b506106d260048036038101908080356fffffffffffffffffffffffffffffffff19169060200190929190505050611341565b604051808481526020018373ffffffffffffffffffffffffffffffffffffffff1673ffffffffffffffffffffffffffffffffffffffff16815260200180602001828103825283818151815260200191508051906020019080838360005b8381101561074a57808201518184015260208101905061072f565b50505050905090810190601f1680156107775780820380516001836020036101000a031916815260200191505b5094505050505060405180910390f35b34801561079357600080fd5b506107c8600480360381019080803573ffffffffffffffffffffffffffffffffffffffff169060200190929190505050611501565b604051808215151515815260200191505060405180910390f35b3480156107ee57600080fd5b50610823600480360381019080803573ffffffffffffffffffffffffffffffffffffffff16906020019092919050505061154b565b6040518080602001828103825283818151815260200191508051906020019080838360005b83811015610863578082015181840152602081019050610848565b50505050905090810190601f1680156108905780820380516001836020036101000a031916815260200191505b509250505060405180910390f35b3480156108aa57600080fd5b506108b3611658565b6040518082815260200191505060405180910390f35b3480156108d557600080fd5b506108f460048036038101908080359060200190929190505050611665565b604051808273ffffffffffffffffffffffffffffffffffffffff1673ffffffffffffffffffffffffffffffffffffffff16815260200191505060405180910390f35b34801561094257600080fd5b50610977600480360381019080803573ffffffffffffffffffffffffffffffffffffffff1690602001909291905050506116bb565b60405180826fffffffffffffffffffffffffffffffff19166fffffffffffffffffffffffffffffffff1916815260200191505060405180910390f35b3480156109bf57600080fd5b506109de60048036038101908080359060200190929190505050611758565b604051808473ffffffffffffffffffffffffffffffffffffffff1673ffffffffffffffffffffffffffffffffffffffff168152602001836fffffffffffffffffffffffffffffffff19166fffffffffffffffffffffffffffffffff1916815260200180602001828103825283818151815260200191508051906020019080838360005b83811015610a7c578082015181840152602081019050610a61565b50505050905090810190601f168015610aa95780820380516001836020036101000a031916815260200191505b5094505050505060405180910390f35b6000610ac433611501565b1515610acf57600080fd5b8160046000803373ffffffffffffffffffffffffffffffffffffffff1673ffffffffffffffffffffffffffffffffffffffff16815260200190815260200160002054815481101515610b1d57fe5b906000526020600020019080519060200190610b3a929190611a7f565b5060019050919050565b6060610b4f82610caa565b1515610b5a57600080fd5b600460016000846fffffffffffffffffffffffffffffffff19166fffffffffffffffffffffffffffffffff1916815260200190815260200160002054815481101515610ba257fe5b906000526020600020018054600181600116156101000203166002900480601f016020809104026020016040519081016040528092919081815260200182805460018160011615610100020316600290048015610c405780601f10610c1557610100808354040283529160200191610c40565b820191906000526020600020905b815481529060010190602001808311610c2357829003601f168201915b50505050509050919050565b600060028054905082101515610c6157600080fd5b600382815481101515610c7057fe5b90600052602060002090600291828204019190066010029054906101000a9004700100000000000000000000000000000000029050919050565b60008060016000846fffffffffffffffffffffffffffffffff19166fffffffffffffffffffffffffffffffff19168152602001908152602001600020541180610d2557507f73656c6600000000000000000000000000000000000000000000000000000000826fffffffffffffffffffffffffffffffff1916145b9050919050565b6000610d3782611501565b1515610d4257600080fd5b6000808373ffffffffffffffffffffffffffffffffffffffff1673ffffffffffffffffffffffffffffffffffffffff168152602001908152602001600020549050919050565b606060028054905082101515610d9d57600080fd5b600482815481101515610dac57fe5b906000526020600020018054600181600116156101000203166002900480601f016020809104026020016040519081016040528092919081815260200182805460018160011615610100020316600290048015610e4a5780601f10610e1f57610100808354040283529160200191610e4a565b820191906000526020600020905b815481529060010190602001808311610e2d57829003601f168201915b50505050509050919050565b6000610e6182610caa565b1515610e6c57600080fd5b60016000836fffffffffffffffffffffffffffffffff19166fffffffffffffffffffffffffffffffff19168152602001908152602001600020549050919050565b6000610eb882610caa565b1515610ec357600080fd5b600260016000846fffffffffffffffffffffffffffffffff19166fffffffffffffffffffffffffffffffff1916815260200190815260200160002054815481101515610f0b57fe5b9060005260206000200160009054906101000a900473ffffffffffffffffffffffffffffffffffffffff169050919050565b600080606060028054905083101515610f5557600080fd5b6000808573ffffffffffffffffffffffffffffffffffffffff1673ffffffffffffffffffffffffffffffffffffffff1681526020019081526020016000205460036000808773ffffffffffffffffffffffffffffffffffffffff1673ffffffffffffffffffffffffffffffffffffffff16815260200190815260200160002054815481101515610fe157fe5b90600052602060002090600291828204019190066010029054906101000a90047001000000000000000000000000000000000260046000808873ffffffffffffffffffffffffffffffffffffffff1673ffffffffffffffffffffffffffffffffffffffff1681526020019081526020016000205481548110151561106157fe5b90600052602060002001808054600181600116156101000203166002900480601f0160208091040260200160405190810160405280929190818152602001828054600181600116156101000203166002900480156111005780601f106110d557610100808354040283529160200191611100565b820191906000526020600020905b8154815290600101906020018083116110e357829003601f168201915b505050505090509250925092509193909250565b600060608061112233611501565b15151561112e57600080fd5b61113786610caa565b15151561114357600080fd5b60023390806001815401808255809150509060018203906000526020600020016000909192909190916101000a81548173ffffffffffffffffffffffffffffffffffffffff021916908373ffffffffffffffffffffffffffffffffffffffff16021790555050600386908060018154018082558091505090600182039060005260206000209060029182820401919006601002909192909190916101000a8154816fffffffffffffffffffffffffffffffff02191690837001000000000000000000000000000000009004021790555050611253856040805190810160405280600381526020017f7c7c7c00000000000000000000000000000000000000000000000000000000008152506118ae565b915061125f82856118ae565b915081905060048190806001815401808255809150509060018203906000526020600020016000909192909190915090805190602001906112a1929190611a7f565b50506001600280549050036000803373ffffffffffffffffffffffffffffffffffffffff1673ffffffffffffffffffffffffffffffffffffffff1681526020019081526020016000208190555060016002805490500360016000886fffffffffffffffffffffffffffffffff19166fffffffffffffffffffffffffffffffff19168152602001908152602001600020819055506001925050509392505050565b60008060606002805490508310151561135957600080fd5b60016000856fffffffffffffffffffffffffffffffff19166fffffffffffffffffffffffffffffffff1916815260200190815260200160002054600260016000876fffffffffffffffffffffffffffffffff19166fffffffffffffffffffffffffffffffff19168152602001908152602001600020548154811015156113db57fe5b9060005260206000200160009054906101000a900473ffffffffffffffffffffffffffffffffffffffff16600460016000886fffffffffffffffffffffffffffffffff19166fffffffffffffffffffffffffffffffff191681526020019081526020016000205481548110151561144e57fe5b90600052602060002001808054600181600116156101000203166002900480601f0160208091040260200160405190810160405280929190818152602001828054600181600116156101000203166002900480156114ed5780601f106114c2576101008083540402835291602001916114ed565b820191906000526020600020905b8154815290600101906020018083116114d057829003601f168201915b505050505090509250925092509193909250565b6000806000808473ffffffffffffffffffffffffffffffffffffffff1673ffffffffffffffffffffffffffffffffffffffff16815260200190815260200160002054119050919050565b606061155682611501565b151561156157600080fd5b60046000808473ffffffffffffffffffffffffffffffffffffffff1673ffffffffffffffffffffffffffffffffffffffff168152602001908152602001600020548154811015156115ae57fe5b906000526020600020018054600181600116156101000203166002900480601f01602080910402602001604051908101604052809291908181526020018280546001816001161561010002031660029004801561164c5780601f106116215761010080835404028352916020019161164c565b820191906000526020600020905b81548152906001019060200180831161162f57829003601f168201915b50505050509050919050565b6000600280549050905090565b60006002805490508210151561167a57600080fd5b60028281548110151561168957fe5b9060005260206000200160009054906101000a900473ffffffffffffffffffffffffffffffffffffffff169050919050565b60006116c682611501565b15156116d157600080fd5b60036000808473ffffffffffffffffffffffffffffffffffffffff1673ffffffffffffffffffffffffffffffffffffffff1681526020019081526020016000205481548110151561171e57fe5b90600052602060002090600291828204019190066010029054906101000a9004700100000000000000000000000000000000029050919050565b60008060606002805490508410151561177057600080fd5b60028481548110151561177f57fe5b9060005260206000200160009054906101000a900473ffffffffffffffffffffffffffffffffffffffff166003858154811015156117b957fe5b90600052602060002090600291828204019190066010029054906101000a9004700100000000000000000000000000000000026004868154811015156117fb57fe5b90600052602060002001808054600181600116156101000203166002900480601f01602080910402602001604051908101604052809291908181526020018280546001816001161561010002031660029004801561189a5780601f1061186f5761010080835404028352916020019161189a565b820191906000526020600020905b81548152906001019060200180831161187d57829003601f168201915b505050505090509250925092509193909250565b606080606080606060008088955087945084518651016040519080825280601f01601f1916602001820160405280156118f65781602001602082028038833980820191505090505b50935083925060009150600090505b85518110156119b857858181518110151561191c57fe5b9060200101517f010000000000000000000000000000000000000000000000000000000000000090047f010000000000000000000000000000000000000000000000000000000000000002838380600101945081518110151561197b57fe5b9060200101907effffffffffffffffffffffffffffffffffffffffffffffffffffffffffffff1916908160001a9053508080600101915050611905565b600090505b8451811015611a705784818151811015156119d457fe5b9060200101517f010000000000000000000000000000000000000000000000000000000000000090047f0100000000000000000000000000000000000000000000000000000000000000028383806001019450815181101515611a3357fe5b9060200101907effffffffffffffffffffffffffffffffffffffffffffffffffffffffffffff1916908160001a90535080806001019150506119bd565b82965050505050505092915050565b828054600181600116156101000203166002900490600052602060002090601f016020900481019282601f10611ac057805160ff1916838001178555611aee565b82800160010185558215611aee579182015b82811115611aed578251825591602001919060010190611ad2565b5b509050611afb9190611aff565b5090565b611b2191905b80821115611b1d576000816000905550600101611b05565b5090565b905600a165627a7a72305820d0b19e08613d58e39c33c80e0d28a4ee1d62301dcad74ea416bc9ffba07745bc0029",
  "source": "pragma solidity ^ 0.4 .19;\n\nimport './customFunctions.sol';\n\ncontract User is StringFeature {\n\n    mapping(address => uint) private addressToIndex;\n    mapping(bytes16 => uint) private usernameToIndex;\n    address[] private addresses;\n    bytes16[] private usernames;\n    bytes[] private ipfsHashes;\n\n    function User() public {\n        // mappings are virtually initialized to zero values so we need to \"waste\" the first element of the arrays\n        // instead of wasting it we use it to create a user for the contract itself\n        // addresses.push(msg.sender);\n        // usernames.push('self');\n        // ipfsHashes.push('not-available');\n    }\n\n    function hasUser(address userAddress) public view returns(bool hasIndeed) {\n        return (addressToIndex[userAddress] > 0);\n    }\n\n    function usernameTaken(bytes16 username) public view returns(bool takenIndeed) {\n        return (usernameToIndex[username] > 0 || username == 'self');\n    }\n\n    function createUser(bytes16 username, bytes title, bytes intro) public returns(bool success) {\n        require(!hasUser(msg.sender));\n        require(!usernameTaken(username));\n        addresses.push(msg.sender);\n        usernames.push(username);\n        string memory ipfsHashStr = addString(string(title), \"|||\");\n        ipfsHashStr = addString(ipfsHashStr, string(intro));\n        bytes memory ipfsHash = bytes(ipfsHashStr);\n        ipfsHashes.push(ipfsHash);\n        addressToIndex[msg.sender] = addresses.length - 1;\n        usernameToIndex[username] = addresses.length - 1;\n\n        return true;\n    }\n\n    function updateUser(bytes ipfsHash) public returns(bool success) {\n        require(hasUser(msg.sender));\n\n        ipfsHashes[addressToIndex[msg.sender]] = ipfsHash;\n        return true;\n    }\n\n    function getUserCount() public view returns(uint count) {\n        return addresses.length;\n    }\n    // get by index\n    function getUserByIndex(uint index) public view returns(address userAddress, bytes16 username, bytes ipfsHash) {\n        require(index < addresses.length);\n        return (addresses[index], usernames[index], ipfsHashes[index]);\n    }\n\n    function getAddressByIndex(uint index) public view returns(address userAddress) {\n        require(index < addresses.length);\n        return addresses[index];\n    }\n\n    function getUsernameByIndex(uint index) public view returns(bytes16 username) {\n        require(index < addresses.length);\n        return usernames[index];\n    }\n\n    function getIpfsHashByIndex(uint index) public view returns(bytes ipfsHash) {\n        require(index < addresses.length);\n        return ipfsHashes[index];\n    }\n    // get by address\n    function getUserByAddress(address userAddress) public view returns(uint index, bytes16 username, bytes ipfsHash) {\n        require(index < addresses.length);\n        return (addressToIndex[userAddress], usernames[addressToIndex[userAddress]], ipfsHashes[addressToIndex[userAddress]]);\n    }\n\n    function getIndexByAddress(address userAddress) public view returns(uint index) {\n        require(hasUser(userAddress));\n        return addressToIndex[userAddress];\n    }\n\n    function getUsernameByAddress(address userAddress) public view returns(bytes16 username) {\n        require(hasUser(userAddress));\n        return usernames[addressToIndex[userAddress]];\n    }\n\n    function getIpfsHashByAddress(address userAddress) public view returns(bytes ipfsHash) {\n        require(hasUser(userAddress));\n        return ipfsHashes[addressToIndex[userAddress]];\n    }\n    // get by username\n    function getUserByUsername(bytes16 username) public view returns(uint index, address userAddress, bytes ipfsHash) {\n        require(index < addresses.length);\n        return (usernameToIndex[username], addresses[usernameToIndex[username]], ipfsHashes[usernameToIndex[username]]);\n    }\n\n    function getIndexByUsername(bytes16 username) public view returns(uint index) {\n        require(usernameTaken(username));\n        return usernameToIndex[username];\n    }\n\n    function getAddressByUsername(bytes16 username) public view returns(address userAddress) {\n        require(usernameTaken(username));\n        return addresses[usernameToIndex[username]];\n    }\n\n    function getIpfsHashByUsername(bytes16 username) public view returns(bytes ipfsHash) {\n        require(usernameTaken(username));\n        return ipfsHashes[usernameToIndex[username]];\n    }\n}",
  "sourcePath": "/Volumes/WORK/Progress/ERC721_Game/truffle-webpack-ipfs-bootstrap/contracts/User.sol",
  "compiler": {
    "name": "solc",
    "version": "0.4.23+commit.124ca40d.Emscripten.clang"
  },
  "schemaVersion": "2.0.0",
  "updatedAt": "2018-05-31T03:50:52.005Z"
}